:020000040800F2
:1000000038040020050100080D0D0008110A000841
:10001000090D0008610700084B1A000800000000E5
:1000200000000000000000000000000011120008A5
:100030006507000800000000D9100008251300081B
:100040001F0100081F0100081F0100081F01000810
:100050001F0100081F0100081F0100081F01000800
:100060001F0100081F0100081F0100081F010008F0
:100070001F0100081F0100081F0100081F010008E0
:100080001F0100081F0100081F0100081F010008D0
:100090001F0100081F0100081F0100081F010008C0
:1000A0001F0100081F0100081F0100081F010008B0
:1000B0001F0100081F0100081F0100081F010008A0
:1000C0001F0100081F0100081F0100081F01000890
:1000D0001F0100086D1800081F0100081F0100081B
:1000E0001F0100081F0100081F010008DFF810D0E1
:1000F00000F024FB00480047C5240008AFF300804F
:10010000380400200648804706480047FEE7FEE71F
:10011000FEE7FEE7FEE7FEE7FEE7FEE7FEE7FEE7B7
:1001200029130008ED0000082DE9FE4F804681EA02
:100130000300C00F0C46009021F0004123F0004561
:10014000B8EB0200A94105D24046214690461C4624
:100150000B46024623F00040104347D0270DC7F35B
:100160000A00C3F30A510290401A019040286BDA4A
:10017000C3F3130040F4801B0098924620B1002383
:10018000D2EB030A63EB0B0B01985946C0F1400216
:10019000504600F0F6F906460D4650465946019A7B
:1001A00000F00EFA10EB08006141002487EA1152BA
:1001B00084EAE7731A4340D0009A62B3019A012A95
:1001C0004FEA075215DC001B61EB02014FF00042C1
:1001D00002EA0752CDE90042001C41F58011324687
:1001E0002B4600F045FA03B0BDE8F08F40462146AB
:1001F000F9E7001B61EB0201001C41F580130018B8
:100200005B412018A2F5001747EB030140EAD570C7
:10021000B6196D4111E06D084FEA360645EAC07522
:100220004FEA0752001B61EB0201001C41F58011EF
:1002300049084FEA30000019514132462B4603B0BD
:10024000BDE8F04F00F005BA0098012240000023FD
:10025000D0EB020263EBE073009821464FEAE074B2
:10026000B8EB000061EB0401E9E783F000435BE7D2
:1002700081F0004158E72DE9FE4F81EA030404F0C4
:10028000004421F0004100944FF0000B23F00043A4
:1002900050EA01045ED052EA03045BD0C3F30A546F
:1002A000C1F30A552C44A4F2F3340194A0FB025488
:1002B000C1F3130141F48011C3F3130343F480131A
:1002C00001FB024400FB034E840A970A44EA81546E
:1002D00047EA8357A4FB076802958D0A05FB07854B
:1002E0004FEA932C04FB0C542705029D4FEA065855
:1002F00047EA1637B5EB08056EEB070C870E920E32
:1003000047EA811742EA8312A7FB0201B6EB0B0111
:1003100064EB00042B0D43EA0C335E1844EB1C50D5
:10032000DA465146E7FB0201C5F313044FEA0B33EB
:1003300043EA14534FEA0432019C43EA0603A4F152
:100340000C040294009CCDE900B400F091F903B0D4
:10035000BDE8F08F00200146F9E72DE9F04D81EA74
:10036000030404F0004B21F0004514464FF0000A4E
:1003700023F0004150EA050220D054EA01021DD0CA
:10038000C5F30A570246C5F31303C1F31300C1F3C3
:100390000A5640F4801543F48013A7EB0608101B9F
:1003A000D64608F2FD3873EB050002D308F10108C8
:1003B00001E092185B41B8F1000F03DA002001461A
:1003C000BDE8F08D00204FF48011064684460EE013
:1003D000171B73EB050705D3121B63EB05030643DD
:1003E0004CEA010C49084FEA300092185B4150EA90
:1003F0000107EDD152EA030012D082EA040083EA39
:100400000501084305D0101BAB4106D20122002391
:1004100006E000224FF0004302E06FF001025310AB
:100420001AEB06004CEB085110EB0A0041EB0B01F4
:10043000BDE8F04D00F00DB90EB540F23341029128
:100440000021CDE900110A460B4600F011F903B076
:1004500000BD00F0004230F000400AD0C10D01F5AF
:100460006071C0F3160042EA0151C208400711430F
:10047000704700200146704730B5041E71F100043A
:1004800004DB4FF00044404264EB0101141E73F1A1
:10049000000405DB1C464FF00043524263EB0403AB
:1004A000994208BF904230BD01F0004330B421F0C2
:1004B000004150EA010206D00A0DA2F56072C1F3B4
:1004C0001301002A02DC30BC00207047440F44EACC
:1004D000C104C100E01830BC00EBC25000F082B88B
:1004E000002801DBC0F10040002901DBC1F100411F
:1004F0008142704730B50B4601460020202201247E
:1005000009E021FA02F59D4205D303FA02F5491BE1
:1005100004FA02F52844151EA2F10102F1DC30BDF7
:100520002DE9F05F0546002092469B468846064628
:10053000814640241BE0284641464746224600F0BB
:100540002FF853465A46C01A914110D31146184607
:10055000224600F016F82D1A67EB01084F46224696
:100560000120002100F00DF817EB00094E41201E7C
:10057000A4F10104DFDC484631462A464346BDE883
:10058000F09F202A04DB203A00FA02F10020704795
:100590009140C2F1200320FA03F3194390407047C1
:1005A000202A04DB203A21FA02F00021704721FAC8
:1005B00002F3D040C2F1200291400843194670472F
:1005C000202A06DBCB17203A41FA02F043EAE07317
:1005D00006E041FA02F3D040C2F120029140084304
:1005E000194670470029A8BF7047401C490008BF42
:1005F00020F00100704710B4B0FA80FC00FA0CF053
:1006000050EA010404BF10BC704749B1CCF120048A
:1006100021FA04F411FA0CF118BF01212143084317
:10062000A3EB0C01CB1D4FEA00614FEA102042BF43
:10063000002010BC704700EBC35010440029A4BF39
:1006400010BC7047401C490008BF20F0010010BCDE
:10065000704710B5141E73F1000408DA401C41F114
:10066000000192185B411A4301D120F0010010BD36
:100670002DE9F04D92469B4611B1B1FA81F202E0AC
:10068000B0FA80F220329046FFF77BFF04460F4617
:1006900040EA0A0041EA0B0153465A46084313D088
:1006A000114653EA010019D0C8F140025046FFF745
:1006B00077FF05460E46504659464246FFF761FF12
:1006C000084305D0012004E020463946BDE8F08DFE
:1006D0000020054346EAE0762C4337430A98630539
:1006E000E40AA0EB08000022FD0A44EA47540A305D
:1006F00002D500200146E9E7010510196941DDE94D
:10070000084500196941BDE8F04DA2E7C1F30A525E
:10071000C1F3130140F2FF3341F480119A4202DA2F
:1007200000200146704740F233439A42A2F233421E
:1007300002DC5242FFF734BFFFF723BF064C074DE0
:1007400006E0E06840F0010394E8070098471034A1
:10075000AC42F6D3FFF7CEFCA0310008C031000850
:1007600000BFFEE77047000010B56FF0040000F016
:10077000C5FD0A4800680A49B0FBF1F00949087054
:100780000846007800EB4001C1EBC0104FF6FF7146
:1007900001EAC0000449088010BD000014000020D8
:1007A00000127A00280000202A0000200146114A89
:1007B00012884A434FF0E0235A6100229A611A4698
:1007C000126942F001021A6100BF4FF0E022106985
:1007D00000F001021AB100F48032002AF5D04FF087
:1007E000E022126922F001024FF0E0231A61002298
:1007F0009A6170472A00002030B50446002505E0C4
:100800004FF47A70FFF7D2FF681CC5B2A542F7D348
:1008100030BD00000146114A12784A434FF0E023F0
:100820005A6100229A611A46126942F001021A6165
:1008300000BF4FF0E022106900F001021AB100F48D
:100840008032002AF5D04FF0E022126922F0010236
:100850004FF0E0231A6100229A61704728000020BF
:100860002DE9F04102460025002600200023002447
:10087000002791F803C00CF00F0591F803C00CF0AD
:10088000100CBCF1000F03D091F802C04CEA050532
:1008900091F800C0BCF1000F31D0146800202BE0AB
:1008A0004FF0010C0CFA00F3B1F800C00CEA03069B
:1008B0009E4220D183004FF00F0C0CFA03F7BC438B
:1008C00005FA03FC4CEA040491F803C0BCF1280FBC
:1008D00006D14FF0010C0CFA00FCC2F814C00AE07B
:1008E00091F803C0BCF1480F05D14FF0010C0CFA90
:1008F00000FCC2F810C0401C0828D1D31460B1F825
:1009000000C0BCF1FF0F34DD546800202EE000F180
:10091000080C4FF0010808FA0CF3B1F800C00CEA1B
:1009200003069E4221D183004FF00F0C0CFA03F70F
:10093000BC4305FA03FC4CEA040491F803C0BCF183
:10094000280F05D100F1080C08FA0CF8C2F8148041
:1009500091F803C0BCF1480F07D100F1080C4FF02B
:10096000010808FA0CF8C2F81080401C0828CED301
:100970005460BDE8F0810000F0B50A460023002471
:100980000021002500F00046B6F1004F02D11D4EB7
:10099000F16901E01B4E7168C0F3034583B200F4B6
:1009A0004016B6F5401F08D121F07061154E7668EB
:1009B00026F07066134F7E6012E000F48016B6F5E4
:1009C000801F06D1032606FA05F4A14341F07061A9
:1009D00006E0460D360103FA06F6B14341F07061B8
:1009E00022B1460D360103FA06F6314300F0004607
:1009F000B6F1004F02D1034EF16101E0014E71608A
:100A0000F0BD000000000140416170470161704786
:100A100000BFFEE770B50246002400250023002039
:100A2000958A138B1B0445EA030626F07F4404EAEB
:100A300001068E4201D1012000E0002070BD21B1ED
:100A4000028842F00102028004E002884FF6FE7341
:100A50001A4002807047000000B585B0012188056A
:100A600000F03CFB0121082000F058FB4FF44060EF
:100A7000ADF8000003208DF802001C208DF8030063
:100A800069461148FFF7ECFE104800F023F80020FB
:100A9000ADF808004BF6FF70ADF80A003020ADF855
:100AA0000C004FF48060ADF80E000001ADF81000AE
:100AB0000748019001A9054800F05EF801210348AC
:100AC000FFF7BDFF05B000BD000C0140005800401D
:100AD000801A060010B504460B48844209D1012152
:100AE000480500F00BFB00214FF4001000F006FB5E
:100AF00008E00121880500F001FB00214FF480008F
:100B000000F0FCFA10BD00000054004021B1028842
:100B100042F48072028004E002884FF6FF631A40BC
:100B20000280704721B1028842F40072028004E022
:100B300002884FF6FF531A40028070470CB50246F8
:100B4000002000230193009300920B0F019321F0EA
:100B50007F41019B1BB1009B1433009303E0090C00
:100B6000009B18330093009B1B680B400BB10120C6
:100B700000E000200CBD00002DE9F04385B00446E4
:100B80000D460026B1460427DFF8CC80A6884FF634
:100B9000C0700640684600F0D1FADDF808802F48A2
:100BA000B8FBF0F01FFA80F946EA0906A680208813
:100BB0004FF6FE71084020800026294928688842A7
:100BC0000CD828684000B8FBF0F087B2042F00DA98
:100BD00004273E4309F10100208427E0E8884BF612
:100BE000FF71884206D1286800EB4000B8FBF0F0A6
:100BF00087B209E0286800EBC00101EB0010B8FBE8
:100C0000F0F087B247F48047C7F30B0008B947F00C
:100C1000010747F4004006434FF4967009FB00F0CB
:100C20004FF47A7190FBF1F0401C2084A683208859
:100C300040F00100208026884FF6F5300640A88855
:100C40006989084306432680A889298908432081A9
:100C500005B0BDE8F083000000127A0040420F00AA
:100C6000A086010012B141F0010102E04FF6FE73CF
:100C700019400182704701827047000070B5044638
:100C80000D4600BF4FF400311C48FFF757FF002806
:100C9000F8D101211948FFF739FF00BF184917485B
:100CA000FFF7B8FE0028F9D0002278211348FFF79B
:100CB000D9FF00BF13491148FFF7ACFE0028F9D057
:100CC00021460E48FFF7D7FF00BF0E49891C0B488D
:100CD000FFF7A0FE0028F8D029460848FFF7CBFF11
:100CE00000BF0849891C0548FFF794FE0028F8D08A
:100CF00001210248FFF716FF70BD000000580040B8
:100D0000010003008200070000BFFEE770470000FB
:100D100070B5002100230F22C47804B3154C246859
:100D200004F4E064C4F5E064210AC1F10403CA409C
:100D3000447804FA03F184781440214309010E4CED
:100D40000678A155047804F01F050124AC4005780D
:100D50006D11AD0005F1E025C5F8004109E004780A
:100D600004F01F050124AC40044D0678761145F8C7
:100D7000264070BD0CED00E000E400E080E100E002
:100D800002490143024A1160704700000000FA0561
:100D90000CED00E010B5002000F03BF810BD2DE98F
:100DA000F05F06460F4690461C46DDF828A04FF03F
:100DB000000BE11704EB5171C910A4EBC10131B96B
:100DC0002046E11704EB5171C1F3C70506E0204648
:100DD000E11704EB5171C910491CCDB23D4614E036
:100DE0002946304600F08DF8B1460AE059460BF12D
:100DF000010B1AF8010000F040FE09F1010000F0BB
:100E0000FF09C145F2DB681CC5B2A542E8DBBDE8BD
:100E1000F09F70B50646002415E004F1B001C8B299
:100E200000F024FE002000F021FE102000F01EFE45
:100E3000002504E0304600F020FE681CC5B2802D7D
:100E4000F8DB601CC4B2082CE7DB70BD10B5FFF7FF
:100E500003FE6420FFF7AAFCAE2000F007FE20206E
:100E600000F004FE102000F001FEB02000F0FEFDB6
:100E7000C82000F0FBFD002000F0F8FD102000F07D
:100E8000F5FD402000F0F2FD812000F0EFFDFF2095
:100E900000F0ECFDA12000F0E9FDA62000F0E6FD49
:100EA000A82000F0E3FD3F2000F0E0FDA42000F0CA
:100EB000DDFDD32000F0DAFD002000F0D7FDD520C5
:100EC00000F0D4FDF02000F0D1FDD92000F0CEFDDF
:100ED000222000F0CBFDDA2000F0C8FD122000F047
:100EE000C5FDDB2000F0C2FD202000F0BFFD8D20FD
:100EF00000F0BCFD142000F0B9FDAF2000F0B6FDFD
:100F000010BD70B504460D4605F1B001C8B200F041
:100F1000ADFD102141EA141000F0A8FD04F00F010E
:100F200041F0010000F0A2FD70BD00002DE9F04786
:100F30000646894617469A464FF0000800240025C9
:100F4000BAF1010F03D0BAF1020F5ED125E020E023
:100F5000785D203800F0FF087E2E04DD002609F1C0
:100F6000010000F0FF0949463046FFF7CAFF0024A0
:100F700009E008EB4801264A02EB4101085D00F058
:100F80007CFD601CC4B2062CF3DBB01DC6B2681C2D
:100F9000C5B2785D0028DBD137E032E0785D2038DB
:100FA00000F0FF08782E04DD002609F1010000F0B2
:100FB000FF0949463046FFF7A4FF002407E004EB91
:100FC0000811144A505C00F058FD601CC4B2082C93
:100FD000F5DB09F10100C1B23046FFF792FF0024B2
:100FE00008E004EB081108310A4A505C00F045FDA6
:100FF000601CC4B2082CF4DB06F10800C6B2681C01
:10100000C5B2785D0028C9D100BF00BFBDE8F08738
:1010100088290008B02B00082DE9FC4106460F4640
:101020001446984610A103C9CDE900010625002009
:101030000DF80500681E85B2002C04DA64422D20EC
:101040008DF8000002E020208DF80000224608A163
:101050000DF1010000F028FD01236A4639463046B3
:10106000FFF764FFBDE8FC81202020202020200025
:10107000253564002DE9FC470646894614469A4604
:10108000062500200DF80500681E85B200212046C7
:10109000FFF726FA05D284F000442D208DF80000D9
:1010A00002E020208DF800002046FFF7D2F9074625
:1010B0003A460B4606A10DF1010000F0F5FC0123B4
:1010C0006A4649463046FFF731FFBDE8FC8700001D
:1010D00025352E32660000007047000029B1064A0F
:1010E000D2690243044BDA6104E0034AD2698243C5
:1010F000014BDA61704700000010024029B1064A36
:1011000012690243044B1A6104E0034A12698243E4
:10111000014B1A61704700000010024029B1064AD5
:1011200092690243044B9A6104E0034A9269824344
:10113000014B9A61704700000010024030B5002159
:101140000022002400232D4D6D6805F00C0121B113
:10115000042905D0082923D105E0294D056022E0A6
:10116000274D05601FE0254D6D6805F47012234D75
:101170006D6805F48034022505EB92421CB9214DBF
:10118000554305600BE01D4D6D6805F400351DB13C
:101190001C4D5543056002E0194D5543056002E0C2
:1011A000174D056000BF00BF144D6D6805F0F001DC
:1011B0000909154D6B5C0568DD4045600F4D6D6894
:1011C00005F4E061090A104D6B5C4568DD408560FF
:1011D0000A4D6D6805F46051C90A0B4D6B5C45689A
:1011E000DD40C560054D6D6805F44041890B074D34
:1011F0006B5CC568B5FBF3F5056130BD00100240BE
:1012000000127A0000093D000000002010000020BC
:10121000704710B500F002F810BD00000CB50020BA
:10122000019000903348006840F4803031490860F4
:1012300000BF3048006800F4003000900198401C66
:101240000190009818B90198B0F5A06FF1D1294824
:10125000006800F4003010B10120009001E000208F
:1012600000900098012843D12348006840F0100006
:10127000214908600846006820F00300086008461D
:10128000006840F0020008601A4840681949486048
:101290000846406848600846406840F480604860FE
:1012A0000846406820F47C1048600846406840F4D6
:1012B000E81048600846006840F08070086000BF91
:1012C0000C48006800F000700028F9D00948406818
:1012D00020F00300074948600846406840F00200DB
:1012E000486000BF0348406800F00C000828F9D1AE
:1012F0000CBD00000010024000200240042808D16C
:101300004FF0E021096941F004014FF0E022116142
:1013100007E04FF0E021096921F004014FF0E022DD
:10132000116170477047000010B51348006840F025
:1013300001001149086008464068104908400E49FC
:101340004860084600680E4908400B490860084696
:10135000006820F4802008600846406820F4FE0001
:1013600048604FF41F008860FFF753FF4FF00060A4
:101370000449086010BD0000001002400000FFF8A2
:10138000FFFFF6FE08ED00E008B501200090012205
:101390006946002000F04AFA0320009001226946C5
:1013A000002000F043FA08BD38B504460020009044
:1013B00002226946204600F016FA9DF800009DF8CA
:1013C000011040EA0125284638BD38B50446012001
:1013D000009001226946132000F005FA9DF80000F4
:1013E00000F0010088B11420FFF7DEFF20801620F6
:1013F000FFF7DAFF60801820FFF7D6FFA0801A20E1
:10140000FFF7D2FFE080012038BD0020FCE700009C
:1014100010B54FF480711248FFF7F6FA1048001D1E
:10142000006820F0F0000E49091D086008460068B9
:1014300040F03000086049150948FFF7E5FA02203E
:10144000FFF7E8F94FF480710548FFF7DFFA022053
:10145000FFF7E0F94FF480710148FFF7D5FA10BDAE
:10146000000C014008B54FF44070ADF800001020AA
:101470008DF8030003208DF8020069460448FFF749
:10148000EFF94FF440710248FFF7C0FA08BD0000C1
:10149000000C014010B54FF480711248FFF7B4FA08
:1014A0001048001D006820F0F0000E49091D08607A
:1014B0000846006840F03000086049150948FFF709
:1014C000A5FA0220FFF7A6F94FF480710548FFF74F
:1014D0009DFA0220FFF79EF94FF480710148FFF753
:1014E00093FA10BD000C01402DE9F04107460D466E
:1014F00016469846002400F09DF8012101EB4701B3
:10150000C8B200F055F800F0EDF800BF0DE0701E15
:10151000A04204D1002000F011F8285503E001207A
:1015200000F00CF82855601CC4B2B442EFDBB8F1EF
:10153000010F01D100F0AAF8BDE8F08170B50546B1
:1015400000241A48006820F0F00018490860084696
:10155000006840F08000086000261DE04FF48071B4
:101560001248001FFFF750FA0220FFF753F94FF41B
:1015700080710E48001FFFF749FA6006040E0B4801
:10158000001D006800F4007008B1601CC4B20120A6
:10159000FFF740F9701CC6B2082EDFDB15B9FFF764
:1015A00079FF01E0FFF734FF204670BD040C0140D5
:1015B00070B504461E48006820F0F0001C49086021
:1015C0000846006840F03000086089151848001F80
:1015D000FFF71AFA002528E00120B0EBD41F05D14F
:1015E00041021348001FFFF711FA05E04FF40071A4
:1015F0000F48001FFFF708FA6006040E0220FFF7ED
:1016000009F94FF480710A48001FFFF7FFF9022023
:10161000FFF700F94FF480710548001FFFF7F4F958
:101620000220FFF7F7F8681CC5B2082DD4DB70BDA7
:10163000040C014010B51448006820F0F000124975
:1016400008600846006840F03000086049150E4800
:10165000001FFFF7DBF94FF480710B48001FFFF705
:10166000D5F90420FFF7D6F84FF400710648001FA3
:10167000FFF7CAF90420FFF7CDF84FF48071024854
:10168000001FFFF7C1F910BD040C014010B514484C
:10169000006820F0F000124908600846006840F039
:1016A0003000086089150E48001FFFF7ADF94FF4B0
:1016B00000710B48001FFFF7A7F90420FFF7AAF8F5
:1016C0004FF480710648001FFFF7A0F94FF4007136
:1016D0000348001FFFF79AF90420FFF79BF810BD9D
:1016E000040C014010B500241948006820F0F000F7
:1016F000174908600846006840F0800008604915F6
:101700001348001FFFF782F90120FFF783F84FF419
:1017100080710F48001FFFF779F90120FFF77AF871
:1017200006E0641CFA2C03D9FFF7B0FF012010BDBE
:101730000748001D006800F400700028F1D14FF444
:1017400080710348001FFFF75FF90020EFE70000FA
:10175000040C01402DE9F04105460E461746984617
:101760000024FFF767FF002141EA4501C8B2FFF7F7
:101770001FFFFFF7B7FF00BF06E0305DFFF718FF60
:10178000FFF7B0FF601CC4B2BC42F6DBB8F1010F3A
:1017900001D1FFF77BFFBDE8F08108B50020009084
:1017A000FFF760FE01226946122000F01CF89DF848
:1017B00000004D2801D1012000E000209DF800101C
:1017C000442901D1012100E00021084348B1002053
:1017D00000F025F8032000F01BF8FFF7D5FD0120ED
:1017E00008BD0020FCE737B50C4615469DF8000003
:1017F00040F0800000900023012269462920FFF775
:10180000A9FF01232A4621462920FFF76DFE3EBD90
:1018100001B5012269460F2000F008F808BD01B5A6
:1018200001226946104600F001F808BDFEB50646E3
:101830000F4615460020009001900290002446F0CB
:1018400080008DF80000012405E0601E385C0DF872
:101850000400601CC4B2AC42F7DD681CC2B20123B4
:1018600069462920FFF776FFFEBD000010B540F263
:101870002551064800F025F838B1044800F0DCF89E
:10188000C4B22146014800F0DCF810BD0038014028
:1018900021B1828942F40052828104E082894DF6AE
:1018A000FF731A408281704702460020B1F5007F25
:1018B00000D100BF13880B400BB1012000E00020D5
:1018C000704770B50246002400230025002040F632
:1018D0006A16B14200D100BFC1F3421501F01F03E7
:1018E000012606FA03F3012D02D19689334006E062
:1018F000022D02D1168A334001E0968A33400C1241
:10190000012606FA04F41688344013B10CB1012004
:1019100000E0002070BDF0B503460024002600253D
:10192000002040F66A17B94200D100BF1846C1F343
:10193000421401F01F06012707FA06F5012C01D118
:101940000C3004E0022C01D1103000E014301AB148
:1019500007682F43076002E00768AF430760F0BDE8
:101960002DE9F04786B005460E460024A24600BF8A
:10197000A1460027B08900B100BF2F462C8A4CF643
:10198000FF700440F08804432C82AC894EF6F310BB
:101990000440B08831890843718908430443AC810D
:1019A000AC8A4FF6FF400440B0890443AC8201A8E2
:1019B000FFF7C4FB1F48874202D1DDF810A001E009
:1019C000DDF80CA0A88900F4004040B10AEBCA0081
:1019D00000EB0A1031684900B0FBF1F807E00AEBB0
:1019E000CA0000EB0A1031688900B0FBF1F86420EE
:1019F000B8FBF0F004012009642101FB1089A889DB
:101A000000F4004040B1322000EBC900B0FBF1F01F
:101A100000F00700044308E0322000EB09106421C5
:101A2000B0FBF1F000F00F0004432C8106B0BDE8DC
:101A3000F08700000038014001468888C0F30800A4
:101A40007047C1F308028280704700BFFEE770B59F
:101A500004460D4629462046FFF7F3FF00BF8021CC
:101A60002046FFF721FF0028F9D070BD10B50446CD
:101A700021460020FFF702F910BD10B504462146AB
:101A80004020FFF7FBF810BD0FB4054B10B503A9BC
:101A9000044A029800F0EEF810BC5DF814FB000058
:101AA00049240008340000200FB4084B10B504A9E5
:101AB00002AA039800F0DEF8044602A9002000F014
:101AC0005CFC204610BC5DF814FB00007B23000882
:101AD00002E008C8121F08C1002AFAD170477047F7
:101AE000002001E001C1121F002AFBD17047000055
:101AF0002DE9FF5F82B00021DDE90430020DDDF841
:101B000040B0034318D044F61050A2F2FF324243D3
:101B10001514119801281FD0A5EB0B00401C5FEA9B
:101B2000000A4FF000064E4FDFF83891B04650469D
:101B300015D5CAF1000413E0119801244AA3012825
:101B400001D16FEA0B010298119AC0E90031C0E996
:101B5000024206B0BDE8F09FCBF10000DFE704468B
:101B60000021404A491842EB0450CDE9001012E030
:101B7000E00707D032463B4640464946FEF77BFB2E
:101B80008046894632463B4610461946FEF773FBAF
:101B900006460F466410002CEAD1DDE90401DDE9B8
:101BA0000023BAF1000F06DAFEF765FB42464B460A
:101BB000FEF761FB05E0FEF7D0FB42464B46FEF721
:101BC000CCFB04460E460022284BFEF755FC03D8FA
:101BD0004FF0FF30014607E00022254B20463146FA
:101BE000FEF7A2FAFEF792FD102409E0002C0ADBB2
:101BF0000A220023FEF794FC039B30321A55641E20
:101C000050EA0102F2D1641C039AC4F11103144496
:101C1000119A012A03D0012208430DD10AE008439A
:101C200004D000204FF0110B119072E7A3EB0B05CD
:101C30006D1E0DE05B4504DD4FF0000205F101056E
:101C400004E003DA4FF00002A5F10105002AECD010
:101C500002981199C0E90231C0E9004579E7000016
:101C6000000014400000F03F300000000000F0438E
:101C70000000E03F2DE9FF4F95B09A4688460646A2
:101C80000025EEE1252877D100242746F94A0121D5
:101C9000039400E0044316F8013F203B01FA03F0EF
:101CA0001042F7D130782A2811D06FF02F03307806
:101CB000A0F13002092A16D8039A44F0020402EB7C
:101CC000820203EB42021044761C0390EFE758F8BF
:101CD000042B0392002A03DA504244F40054039088
:101CE00044F00204761C30782E2816D116F8010F25
:101CF00044F004042A280DD06FF02F023078A0F1B0
:101D00003003092B09D807EB870302EB4303C718FD
:101D1000761CF3E758F8047B761C30786C280FD0DB
:101D200006DC4C2817D068280DD06A2814D104E0AE
:101D3000742810D07A280FD10DE044F400140AE082
:101D400044F4801401E044F440147278824202D1D9
:101D500004F58014761C761C307866280BD013DCD2
:101D6000582877D009DC002875D04528F6D04628B9
:101D7000F4D047281AD193E118E0632835D06428BD
:101D800079D0652812D18BE1702873D008DC6728E0
:101D9000F1D069286FD06E280DD06F2806D1ACE045
:101DA00073282CD0752874D0782853D052461799B0
:101DB00090476D1C54E1C4F30250022809D0032857
:101DC0000DD0D8F8001004280DD00D6008F10408DB
:101DD00046E1D8F80010EA17C1E90052F6E7D8F852
:101DE00000100D80F2E70D70F0E718F8041B8DF875
:101DF000001000208DF80100EB46012003E058F8A8
:101E000004BB4FF0FF3061074FF0000102D40DE03A
:101E100009F101018946B9420FDA8145F8DB1BF867
:101E200009100029F4D108E009F101018946814235
:101E3000FADB1BF809100029F6D103985346A0EBF2
:101E4000090721463846179A00F080FA284400EB2B
:101E5000090507E044E008E10DE01BF8010B5246DC
:101E600017999047B9F10109F7D2534621463846F0
:101E7000179AF2E039E00A21C4F302524FF0000B46
:101E80000091022A06D058F8040BC117032A09D082
:101E90000AE023E008F1070020F00702F2E802015F
:101EA000904605E000B2C117042A01D140B2C11723
:101EB000002906DA0A460021404261EB02012D2288
:101EC00002E0220504D52B228DF80420012203E034
:101ED000E20701D02022F7E7914657E00A2100E00F
:101EE00010214FF0000B00910BE010214FF0000B80
:101EF00044F004040827009103E008204FF0000B91
:101F00000090C4F30252022A05D058F8040B0021B5
:101F1000032A08D008E008F1070020F00702F2E8E1
:101F20000201904603E080B2042A00D1C0B24FF013
:101F3000000922072AD53278702A07D0DDF800C0C0
:101F40008CF0100C5CEA0B0C05D00EE040228DF8F2
:101F50000420012208E050EA010306D030238DF866
:101F600004308DF8052002229146009B83F008037F
:101F700053EA0B030AD150EA010201D1620705D5E9
:101F800030228DF804204FF001097F1E3278582A44
:101F900004D039A20C920CAA02920BE03BA2F9E702
:101FA0005B46009AFEF7BCFA0C9B9B5C029A521EA1
:101FB0000292137050EA0102F2D1029804A9081AA1
:101FC00000F1200B600702D524F4803400E00127E3
:101FD0005F4502DDA7EB0B0000E0002000EB0B01EA
:101FE000009003984944401A0390E00306D45346F6
:101FF0002146179A039800F0A9F90544002706E046
:1020000001A85246C05D179990476D1C7F1C4F4533
:10201000F6DBE0030CD553462146179A039800F0EF
:1020200095F9054404E030205246179990476D1CFD
:102030000099481E00900029F5DC08E002980299FA
:1020400052460078491C0291179990476D1CBBF1CC
:102050000001ABF1010BF1DC5BE100F065F9054437
:10206000761C307800287FF40DAE19B02846BDE804
:10207000F08F000009280100303132333435363713
:1020800038396162636465660000000030313233C4
:102090003435363738394142434445460000000064
:1020A000600700D4062708F1070020F00700F0E8D9
:1020B0000223804603F0004C5FEA0C0001D097A099
:1020C00009E0200501D596A005E0E00701D095A024
:1020D00001E0AFF24C001390307823F00043652804
:1020E0000CD006DC452809D046281DD047287FD1D2
:1020F0003BE0662818D067287AD136E00021112FFE
:1021000001DB112000E0781CCDE9000104A90CA836
:10211000FFF7EEFCDDE90D010C9A4FF0000B07F123
:102120000109109200914EE04FF000400097CDE978
:10213000011004A90CA8FFF7DBFCDDE90D020C9BE4
:102140000F994FF0000B91461093009211B9791C32
:1021500000EB0109B7EB090003D4C0F1FF3B07F125
:102160000109A9EB0700019042E0012F00DA0127E5
:102170000021112F01DD112000E03846CDE90001DA
:1021800004A90CA8FFF7B4FCDDE90D010C9A00913D
:102190004FF0000BB946109221070FD4009A4A4520
:1021A00003DA914601E0A9F10109B9F1010F05DD5A
:1021B000109AA9F10101515C3029F4D0B84202DA39
:1021C00010F1040F03DA0121CDE9011010E000281D
:1021D00003DC8344A9EB000102E0411C494500DD1A
:1021E0008946A0EB0B00401C01904FF0004002908C
:1021F000200705D40198484502DB4FF0FF300190DD
:1022000000208DF84B0002980DF14B07B0F1004F04
:1022100025D002200C902B200D90029800280CDA7B
:10222000404202902D200D9007E00A210298FEF70F
:1022300061F93031029007F8011D0C99481E0C908D
:102240000029F2DC02980028EFD1791E0D98087061
:10225000307800F0200040F0450007F8020D11A88A
:10226000C01BC01D02901398007800B1012000EB44
:102270000901019801EBE071029801440398401AAA
:10228000401E0390E00306D453462146179A039854
:1022900000F05CF805441398007818B1524617997D
:1022A00090476D1CE00323D553462146179A0398A7
:1022B00000F04CF805441BE0BBF1000F07DB009871
:1022C000584504DD1098179910F80B0001E0179994
:1022D00030205246904701980BF1010B401E05F14A
:1022E0000105019004D12E205246179990476D1C8C
:1022F000B9F10001A9F10109DEDC05E017F8010BD5
:102300005246179990476D1C0299481E0290002969
:10231000F4DC53462146179A03989EE62D000000F0
:102320002B000000200000002DE9F04104460025AC
:102330001E461746880404D405E039462020B047DD
:102340006D1C641EF9D52846BDE8F0812DE9F041E9
:10235000044600251E469046C80301D5302700E0FC
:102360002027880404D505E041463846B0476D1C57
:10237000641EF9D52846BDE8F0810A68531C0B603D
:102380001070704700B587B001210820FEF7C6FE27
:1023900001218803FEF7C2FE4020ADF8180003209B
:1023A0008DF81A0018208DF81B0006A92448FEF7A6
:1023B00057FA8020ADF8140003208DF81600042091
:1023C0008DF8170005A91E48FEF74AFA4FF4E130D0
:1023D00001900020ADF80800ADF80A00ADF810003B
:1023E000ADF80C000C20ADF80E004FF4A060FEF725
:1023F000C7FC25208DF8000002208DF801008DF823
:10240000020001208DF803006846FEF781FC01A957
:102410000C48FFF7A5FA012240F225510948FFF7C1
:102420007AFA01210748FFF733FA01210846FEF73F
:1024300075FE01210420FEF79FFA07B000BD0000E1
:10244000000C01400038014070B504460D46E1B271
:102450000548FFF7FCFA00BF80210348FFF724FA84
:102460000028F9D0204670BD0038014008B5012190
:102470000420FEF753FE8020ADF8000003208DF805
:10248000020048208DF8030069460248FEF7E8F98B
:1024900008BD00000008014008B501211020FEF72A
:1024A0003DFE4FF40050ADF8000003208DF802000F
:1024B00010208DF8030069460148FEF7D1F908BDE8
:1024C0000010014008B5FEF74FF9FFF7E5FFFFF7F1
:1024D000CDFFFFF757FFFEF7B9FCFFF75EF9FEF7F8
:1024E00059FC012358A200210846FEF71FFD5B4856
:1024F00007238022012100900020FEF750FC0120DC
:10250000FEF77AF9FEF746FC9DE05548FEF75DFFC1
:10251000012354A219460020FEF708FD50484288C6
:10252000032301210A20FEF777FD4D490888FDF7B6
:1025300083FF04460D464A494888FDF77DFF8046E3
:102540000022494BFDF797FE064622462B46FDF733
:1025500004FF8246FDF7A8FF0323024601210090F5
:102560003C20FEF787FD012340A202210020FEF758
:10257000DDFC3B488288032302210A20FEF74CFD44
:1025800037490888FDF758FF06460F4634498888C2
:10259000FDF752FF82460022334BFDF76CFE80466A
:1025A00032463B46FDF7D9FE0446FDF77DFF032387
:1025B0000246022100903C20FEF75CFD01232CA284
:1025C00003210020FEF7B2FC2548C28803231946E8
:1025D0000A20FEF721FD22490888FDF72DFF8246DB
:1025E0008B461F49C888FDF727FF804600221E4BF7
:1025F000FDF741FE064652465B46FDF7AEFE044639
:10260000FDF752FF03230246194600903C20FEF7D7
:1026100031FD012317A204210020FEF787FC10489A
:102620000288032304210A20FEF7F6FC0C480088E8
:1026300000900B48C388828841880FA0FFF724FAD6
:102640006420FEF7B3F860E7544353333437323530
:1026500020696E69742E2E2E000000008826000866
:102660002C0000205200000000E06F4047000000F6
:10267000420000004300000025642C25642C2564E2
:102680002C25642C0A0D0000000000000000000052
:102690000000000080E43800030303030203030387
:1026A000030303030303030070C0000000000000E5
:1026B000000000000000000000000000000000001A
:1026C000000000F8000003030303000000F800000E
:1026D00000000000000000000000000000000000FA
:1026E00000000000000000000000000000000000EA
:1026F00000000000000000000000000000000000DA
:1027000000000000000000000000000000000000C9
:1027100080C0000F03000000000000C0401818181F
:1027200018081818181808000003874C18181818EB
:102730000808181818180818181818008000000041
:10274000000000EF000000000000000000FF00009B
:10275000000000C0401818181808181818180808A1
:102760001818181800800000000000C0E0000818C9
:102770001818980040C00000001818181800181801
:102780001818000000E00000000000000000781CA5
:102790000301000000000000781C07010000000099
:1027A00000000000000000601C0F0100000000009D
:1027B00000404040404000000000000001073C7025
:1027C0000000007F0000000000000000007F00000B
:1027D000781C030100000000000040404040400021
:1027E0000000000000010F3C6000007F7F0000003F
:1027F0000000000001000000404040404000404018
:1028000040400000007F000000C0701C0600000077
:10281000000000C0F0180E020000000000000000E0
:1028200000000000FF00000000000000000078FC35
:102830000200000000000002FC7800000000000020
:10284000000000FF000000000000000000FF00008A
:1028500000000000000000788E0200000000000070
:1028600086FC080000000000000000FFFF000000E0
:10287000000000000003FF00000000000000000056
:1028800000000000000000000131E08000000000B6
:102890000000000100000000020202020202020227
:1028A00002020080C3301000F0C0000000000001F0
:1028B00001020202020200010100000000C0F0302B
:1028C000000000FB000000000000000000FB000012
:1028D00020F080000000000001010202020202005C
:1028E000010100000000C0F0100000FBFB00000030
:1028F00000000000000AFB000000000000000000D3
:102900000000000000000000000000070C00101094
:1029100010100010101010101010101010101010C7
:1029200010100C0701000000000306081010101022
:1029300010101010101010101010100C0E010000CC
:102940000000001F0000101010100000001F000009
:102950000000030E081010101010101010101010AE
:10296000101010100C0601000000001F1F001010B6
:102970001010180000001F00000000000000000000
:102980000000000000000000000000000000000047
:10299000002F000000000700070000147F147F14C0
:1029A00000242A7F2A120062640813230036495546
:1029B000225000000503000000001C22410000001E
:1029C00041221C000014083E08140008083E0808B4
:1029D000000000A06000000808080808000060600F
:1029E0000000002010080402003E5149453E00004E
:1029F000427F4000004261514946002141454B3130
:102A0000001814127F10002745454539003C4A49FB
:102A1000493000017109050300364949493600066D
:102A20004949291E000036360000000056360000D5
:102A30000008142241000014141414140000412250
:102A4000140800020151090600324959513E007C28
:102A50001211127C007F49494936003E4141412212
:102A6000007F4141221C007F49494941007F0909FB
:102A70000901003E4149497A007F0808087F0000AB
:102A8000417F4100002040413F01007F0814224166
:102A9000007F40404040007F020C027F007F04081E
:102AA000107F003E4141413E007F09090906003E7A
:102AB0004151215E007F09192946004649494931A3
:102AC0000001017F0101003F4040403F001F2040C6
:102AD000201F003F4038403F006314081463000784
:102AE0000870080700615149454300007F414100DB
:102AF00000552A552A55000041417F00000402017B
:102B00000204004040404040000001020400002058
:102B100054545478007F4844443800384444442096
:102B200000384444487F00385454541800087E0943
:102B300001020018A4A4A47C007F0804047800000B
:102B4000447D4000004080847D00007F10284400C8
:102B50000000417F4000007C04180478007C0804D9
:102B6000047800384444443800FC24242418001815
:102B7000242418FC007C0804040800485454542001
:102B800000043F444020003C4040207C001C20408A
:102B9000201C003C4030403C004428102844001CCD
:102BA000A0A0A07C004464544C44141414141414C5
:102BB0000000000000000000000000000000000015
:102BC000000000F8000000000000003330000000AA
:102BD00000100C06100C06000000000000000000B1
:102BE00040C07840C0784000043F04043F04040023
:102BF000007088FC08300000001820FF211E000033
:102C0000F008F000E018000000211C031E211E0047
:102C100000F00888700000001E21232419272110CD
:102C200010160E0000000000000000000000000070
:102C3000000000E018040200000000071820400017
:102C400000020418E0000000004020180700000007
:102C5000404080F0804040000202010F010202006B
:102C6000000000F0000000000101011F010101004F
:102C7000000000000000000080B0700000000000B4
:102C8000000000000000000000010101010101013D
:102C900000000000000000000030300000000000D4
:102CA00000000000806018040060180601000000A9
:102CB00000E010080810E000000F102020100F00A6
:102CC000001010F8000000000020203F202000002D
:102CD0000070080808887000003028242221300085
:102CE00000300888884830000018202020110E008D
:102CF0000000C02010F8000000070424243F240036
:102D000000F80888880808000019212020110E000A
:102D100000E0108888180000000F112020110E001C
:102D200000380808C83808000000003F0000000014
:102D30000070880808887000001C222121221C00D5
:102D400000E010080810E0000000312222110F00FE
:102D5000000000C0C0000000000000303000000093
:102D60000000008000000000000080600000000003
:102D7000000080402010080000010204081020001C
:102D80004040404040404000040404040404040067
:102D900000081020408000000020100804020100FC
:102DA000007048080808F0000000003036010000FC
:102DB000C030C828E810E0000718272423140B00AF
:102DC0000000C038E0000000203C23020227382029
:102DD00008F8888888700000203F202020110E000D
:102DE000C030080808083800071820202010080004
:102DF00008F808080810E000203F202020100F00ED
:102E000008F88888E8081000203F202023201800B8
:102E100008F88888E8081000203F20000300000020
:102E2000C03008080838000007182020221E0200C1
:102E300008F808000008F808203F210101213F2080
:102E4000000808F8080800000020203F20200000AB
:102E500000000808F8080800C08080807F0000009B
:102E600008F888C028180800203F200126382000D4
:102E700008F8080000000000203F2020202030003B
:102E800008F8F800F8F80800203F003F003F200055
:102E900008F830C00008F808203F200007183F005D
:102EA000E01008080810E0000F10202020100F008C
:102EB00008F808080808F000203F2101010100007F
:102EC000E01008080810E0000F18242438504F00C4
:102ED00008F8888888887000203F2000030C302084
:102EE00000708808080838000038202121221C00C2
:102EF000180808F8080818000000203F200000000B
:102F000008F808000008F808001F202020201F00F3
:102F10000878880000C83808000007380E01000053
:102F2000F80800F80008F800033C0700073C03001D
:102F3000081868808068180820302C03032C302083
:102F40000838C800C83808000000203F20000000F2
:102F500010080808C838080020382621202018004A
:102F6000000000FE020202000000007F404040001E
:102F7000000C30C000000000000000010638C00056
:102F800000020202FE000000004040407F000000FE
:102F90000000040202020400000000000000000023
:102FA0000000000000000000808080808080808021
:102FB0000002020400000000000000000000000009
:102FC00000008080808000000019242222223F20FF
:102FD00008F8008080000000003F112020110E0042
:102FE0000000008080800000000E112020201100D1
:102FF000000000808088F800000E112020103F2083
:103000000000808080800000001F22222222130006
:10301000008080F0888888180020203F2020000051
:103020000000808080808000006B94949493600006
:1030300008F8008080800000203F210000203F2011
:1030400000809898000000000020203F2020000011
:10305000000000809898000000C08080807F000001
:1030600008F8000080808000203F24022D302000DE
:10307000000808F8000000000020203F2020000089
:103080008080808080808000203F20003F20003FA3
:103090008080008080800000203F210000203F20B1
:1030A0000000808080800000001F202020201F0062
:1030B000808000808000000080FFA12020110E0091
:1030C0000000008080808000000E112020A0FF8082
:1030D000808080008080800020203F21200001002F
:1030E0000000808080808000003324242424190084
:1030F000008080E0808000000000001F2020000091
:103100008080000000808000001F202020103F20D1
:10311000808080000080808000010E300806010061
:1031200080800080008080800F300C030C300F0006
:1031300000808000808080000020312E0E31200031
:10314000808080000080808080818E701806010061
:1031500000808080808080000021302C222130007F
:1031600000000000807C020200000000003F4040A0
:1031700000000000FF00000000000000FF00000051
:103180000002027C800000000040403F0000000080
:10319000000601010202040400000000000000001B
:1031A000C03100080000002038000000D01A0008DC
:1031B000F83100083800002000040000E01A000880
:1031C00000000000010203040102030406070809CD
:1031D0000204060800A24A040000000000000000EB
:1031E00001020304060708090000000000000000B7
:0831F0000000000000000000D7
:0400000508000105E9
:00000001FF
