:020000040800F2
:100000009806002089010008D1070008D5040008DF
:10001000CD070008430200088F150008000000000B
:100020000000000000000000000000005B0D000860
:100030004702000800000000C70A00086D0E000813
:10004000A3010008A3010008A3010008A301000800
:10005000A3010008A3010008A3010008A3010008F0
:10006000A3010008A3010008A3010008A3010008E0
:10007000A3010008A3010008A3010008A3010008D0
:10008000A3010008A3010008A3010008A3010008C0
:10009000A3010008A3010008A3010008A3010008B0
:1000A000A3010008A3010008A3010008A3010008A0
:1000B000A3010008A3010008A3010008A301000890
:1000C000A3010008A3010008A3010008A301000880
:1000D000A3010008C9130008A3010008A301000838
:1000E000A3010008A3010008A301000800F002F822
:1000F00000F03AF80AA090E8000C82448344AAF188
:100100000107DA4501D100F02FF8AFF2090EBAE885
:100110000F0013F0010F18BFFB1A43F0010318473B
:10012000C81E0000E81E0000103A24BF78C878C13D
:10013000FAD8520724BF30C830C144BF04680C60ED
:10014000704700000023002400250026103A28BF35
:1001500078C1FBD8520728BF30C148BF0B60704739
:100160001FB51FBD10B510BD00F031F81146FFF7E7
:10017000F7FF01F0ABFA00F04FF803B4FFF7F2FF1E
:1001800003BC00F057F800000948804709480047C1
:10019000FEE7FEE7FEE7FEE7FEE7FEE7FEE7FEE737
:1001A000FEE7FEE704480549054A064B7047000094
:1001B000710E0008ED00000898000020980600204D
:1001C00098020020980200207047704770477546DB
:1001D00000F02CF8AE4605006946534620F00700B3
:1001E000854618B020B5FFF7DDFFBDE820404FF091
:1001F00000064FF000074FF000084FF0000B21F011
:100200000701AC46ACE8C009ACE8C009ACE8C009DD
:10021000ACE8C0098D46704710B50446AFF30080C6
:100220002046BDE81040FFF7A8BF00000048704717
:100230003800002001491820ABBEFEE7260002006E
:10024000704700BFFEE7704710B56FF0040000F084
:10025000F9FD0A4800680A49B0FBF1F00949087045
:100260000846007800EB4001C1EBC0104FF6FF716B
:1002700001EAC0000449088010BD000014000020FD
:1002800000127A00280000202A0000200146114AAE
:1002900012884A434FF0E0235A6100229A611A46BD
:1002A000126942F001021A6100BF4FF0E0221069AA
:1002B00000F001021AB100F48032002AF5D04FF0AC
:1002C000E022126922F001024FF0E0231A610022BD
:1002D0009A6170472A0000200146114A12784A4369
:1002E0004FF0E0235A6100229A611A46126942F0E7
:1002F00001021A6100BF4FF0E022106900F0010214
:100300001AB100F48032002AF5D04FF0E0221269D1
:1003100022F001024FF0E0231A6100229A61704737
:10032000280000202DE9F04102460025002600208B
:1003300000230024002791F803C00CF00F0591F86A
:1003400003C00CF0100CBCF1000F03D091F802C0F8
:100350004CEA050591F800C0BCF1000F31D01468DB
:1003600000202BE04FF0010C0CFA00F3B1F800C0B4
:100370000CEA03069E4220D183004FF00F0C0CFACA
:1003800003F7BC4305FA03FC4CEA040491F803C0EC
:10039000BCF1280F06D14FF0010C0CFA00FCC2F89A
:1003A00014C00AE091F803C0BCF1480F05D14FF02A
:1003B000010C0CFA00FCC2F810C0401C0828D1D374
:1003C0001460B1F800C0BCF1FF0F34DD54680020A8
:1003D0002EE000F1080C4FF0010808FA0CF3B1F818
:1003E00000C00CEA03069E4221D183004FF00F0C9F
:1003F0000CFA03F7BC4305FA03FC4CEA040491F839
:1004000003C0BCF1280F05D100F1080C08FA0CF864
:10041000C2F8148091F803C0BCF1480F07D100F175
:10042000080C4FF0010808FA0CF8C2F81080401CC4
:100430000828CED35460BDE8F0810000F0B50A462C
:10044000002300240021002500F00046B6F1004FF3
:1004500002D11D4EF16901E01B4E7168C0F30345E6
:1004600083B200F44016B6F5401F08D121F0706148
:10047000154E766826F07066134F7E6012E000F429
:100480008016B6F5801F06D1032606FA05F4A143AF
:1004900041F0706106E0460D360103FA06F6B143FD
:1004A00041F0706122B1460D360103FA06F6314380
:1004B00000F00046B6F1004F02D1034EF16101E0B9
:1004C000014E7160F0BD00000000014041617047C5
:1004D0000161704700BFFEE770B5024600240025A9
:1004E00000230020958A138B1B0445EA030626F09F
:1004F0007F4404EA01068E4201D1012000E0002081
:1005000070BD21B1028842F00102028004E002883D
:100510004FF6FE731A4002807047000000B585B0A8
:100520000121880500F0D0FA0121082000F0ECFA42
:100530004FF44060ADF8000003208DF802001C204D
:100540008DF8030069461148FFF7ECFE104800F0F3
:1005500023F80020ADF808004BF6FF70ADF80A0054
:100560003020ADF80C004FF48060ADF80E000001B3
:10057000ADF810000748019001A9054800F05EF8A9
:1005800001210348FFF7BDFF05B000BD000C01408D
:1005900000580040801A060010B504460B488442FB
:1005A00009D10121480500F09FFA00214FF4001005
:1005B00000F09AFA08E00121880500F095FA002180
:1005C0004FF4800000F090FA10BD0000005400408D
:1005D00021B1028842F48072028004E002884FF662
:1005E000FF631A400280704721B1028842F4007212
:1005F000028004E002884FF6FF531A4002807047E1
:100600000CB50246002000230193009300920B0FCB
:10061000019321F07F41019B1BB1009B1433009398
:1006200003E0090C009B18330093009B1B680B40F0
:100630000BB1012000E000200CBD00002DE9F043CB
:1006400085B004460D460026B1460427DFF8CC806D
:10065000A6884FF6C0700640684600F065FADDF8DF
:1006600008802F48B8FBF0F01FFA80F946EA090627
:10067000A68020884FF6FE71084020800026294978
:10068000286888420CD828684000B8FBF0F087B290
:10069000042F00DA04273E4309F10100208427E0FB
:1006A000E8884BF6FF71884206D1286800EB4000CD
:1006B000B8FBF0F087B209E0286800EBC00101EB5D
:1006C0000010B8FBF0F087B247F48047C7F30B0087
:1006D00008B947F0010747F4004006434FF496700D
:1006E00009FB00F04FF47A7190FBF1F0401C20847C
:1006F000A683208840F00100208026884FF6F53040
:100700000640A8886989084306432680A889298964
:100710000843208105B0BDE8F083000000127A0094
:1007200040420F00A086010012B141F0010102E039
:100730004FF6FE7319400182704701827047000036
:1007400070B504460D4600BF4FF400311C48FFF75A
:1007500057FF0028F8D101211948FFF739FF00BFE2
:1007600018491748FFF7B8FE0028F9D00022782171
:100770001348FFF7D9FF00BF13491148FFF7ACFE3C
:100780000028F9D021460E48FFF7D7FF00BF0E49D9
:10079000891C0B48FFF7A0FE0028F8D0294608481E
:1007A000FFF7CBFF00BF0849891C0548FFF794FEFF
:1007B0000028F8D001210248FFF716FF70BD0000A5
:1007C00000580040010003008200070000BFFEE760
:1007D0007047000070B5002100230F22C47804B3D5
:1007E000154C246804F4E064C4F5E064210AC1F106
:1007F0000403CA40447804FA03F184781440214386
:1008000009010E4C0678A155047804F01F05012457
:10081000AC4005786D11AD0005F1E025C5F800414B
:1008200009E0047804F01F050124AC40044D06786B
:10083000761145F8264070BD0CED00E000E400E0C4
:1008400080E100E002490143024A11607047000064
:100850000000FA050CED00E010B5002000F001F8F2
:1008600010BD70B50646002415E004F1B001C8B211
:1008700000F08FFE002000F08CFE102000F089FEBA
:10088000002504E0304600F08BFE681CC5B2802DC8
:10089000F8DB601CC4B2082CE7DB70BD10B5FFF7B5
:1008A0003DFE6420FFF7F2FCAE2000F072FE202037
:1008B00000F06FFE102000F06CFEB02000F069FE2A
:1008C000C82000F066FE002000F063FE102000F05B
:1008D00060FE402000F05DFE812000F05AFEFF2007
:1008E00000F057FEA12000F054FEA62000F051FEBB
:1008F000A82000F04EFE3F2000F04BFEA42000F0A8
:1009000048FED32000F045FE002000F042FED52036
:1009100000F03FFEF02000F03CFED92000F039FE50
:10092000222000F036FEDA2000F033FE122000F024
:1009300030FEDB2000F02DFE202000F02AFE8D206E
:1009400000F027FE142000F024FEAF2000F021FE6E
:1009500010BD70B504460D4605F1B001C8B200F0F7
:1009600018FE102141EA141000F013FE04F00F01EC
:1009700041F0010000F00DFE70BD00002DE9F047D0
:100980000646894617469A464FF00008002400257F
:10099000BAF1010F03D0BAF1020F5ED125E020E0D9
:1009A000785D203800F0FF087E2E04DD002609F176
:1009B000010000F0FF0949463046FFF7CAFF002456
:1009C00009E008EB4801264A02EB4101085D00F00E
:1009D000E7FD601CC4B2062CF3DBB01DC6B2681C78
:1009E000C5B2785D0028DBD137E032E0785D203891
:1009F00000F0FF08782E04DD002609F1010000F068
:100A0000FF0949463046FFF7A4FF002407E004EB46
:100A10000811144A505C00F0C3FD601CC4B2082CDD
:100A2000F5DB09F10100C1B23046FFF792FF002467
:100A300008E004EB081108310A4A505C00F0B0FDF0
:100A4000601CC4B2082CF4DB06F10800C6B2681CB6
:100A5000C5B2785D0028C9D100BF00BFBDE8F087EE
:100A6000D0170008F81900082DE9FC47074688460A
:100A700014469946062500200DF80500681E85B22B
:100A8000002C04DA64422D208DF8000002E02020C2
:100A90008DF800000DE00A2094FBF0F100FB1140FE
:100AA0003030C6B20A2094FBF0F40DF80560681EE1
:100AB00085B2002DEFD101236A4641463846FFF743
:100AC0005DFFBDE8FC87704729B1064AD269024341
:100AD000044BDA6104E0034AD2698243014BDA61D4
:100AE000704700000010024029B1064A1269024313
:100AF000044B1A6104E0034A12698243014B1A61F4
:100B0000704700000010024029B1064A9269024372
:100B1000044B9A6104E0034A92698243014B9A6153
:100B2000704700000010024030B500210022002470
:100B300000232D4D6D6805F00C0121B1042905D06D
:100B4000082923D105E0294D056022E0274D0560E5
:100B50001FE0254D6D6805F47012234D6D6805F496
:100B60008034022505EB92421CB9214D55430560A6
:100B70000BE01D4D6D6805F400351DB11C4D55434E
:100B8000056002E0194D5543056002E0174D056010
:100B900000BF00BF144D6D6805F0F0010909154D47
:100BA0006B5C0568DD4045600F4D6D6805F4E061E4
:100BB000090A104D6B5C4568DD4085600A4D6D6823
:100BC00005F46051C90A0B4D6B5C4568DD40C5609A
:100BD000054D6D6805F44041890B074D6B5CC56898
:100BE000B5FBF3F5056130BD0010024000127A003C
:100BF00000093D0000000020100000202DE9F04118
:100C00000446B4F802C04FF064080CFB08FCB4F8CA
:100C100000809CFBF8FC0CF0FF06B4F804C04FF019
:100C200064080CFB08FCB4F800809CFBF8FC0CF09A
:100C3000FF00B4F806C04FF064080CFB08FCB4F8E1
:100C400000809CFBF8FC0CF0FF02864205DA904223
:100C500001DA944606E0844604E0964201DA9446BE
:100C600000E0B4466346864205DD904201DD9446CD
:100C700006E0844604E0964201DD944600E0B44676
:100C80006746A3EB070C0CF0FF0503EB070C0CEB1E
:100C9000DC78C8F3470881F80380BB4206D14FF0E7
:100CA000000CA1F800C081F802C054E0B34219D191
:100CB00090420ADBA0EB020CCCEB0C1C4FEA8C0C34
:100CC0009CFBF5FCA1F800C029E0A0EB020CCCEBEA
:100CD0000C1C4FEA8C0C9CFBF5FC0CF5B47CA1F8C9
:100CE00000C01CE083420CD1A2EB060CCCEB0C1C28
:100CF0004FEA8C0C9CFBF5FC0CF1780CA1F800C0C1
:100D00000DE093420BD1A6EB000CCCEB0C1C4FEA90
:100D10008C0C9CFBF5FC0CF1F00CA1F800C091F8D8
:100D200003C0BCF1320F0ADC4FF0640C05FB0CFC75
:100D300003EB07089CFBF8FC81F802C00BE04FF0C6
:100D4000640C05FB0CFC03EB0708C8F1C8089CFB0E
:100D5000F8FC81F802C0BDE8F081704710B500F0E2
:100D600001F810BD0CB500200190009033480068D8
:100D700040F480303149086000BF3048006800F41A
:100D8000003000900198401C0190009818B901981B
:100D9000B0F5A06FF1D12948006800F4003010B11F
:100DA0000120009001E0002000900098012843D12C
:100DB0002348006840F01000214908600846006898
:100DC00020F0030008600846006840F00200086058
:100DD0001A48406819494860084640684860084613
:100DE000406840F4806048600846406820F47C1009
:100DF00048600846406840F4E810486008460068CB
:100E000040F08070086000BF0C48006800F000707F
:100E10000028F9D00948406820F0030007494860DD
:100E20000846406840F00200486000BF0348406840
:100E300000F00C000828F9D10CBD000000100240A1
:100E400000200240042808D14FF0E021096941F058
:100E500004014FF0E022116107E04FF0E021096941
:100E600021F004014FF0E02211617047704700004B
:100E700010B51348006840F00100114908600846A9
:100E80004068104908400E494860084600680E490D
:100E900008400B4908600846006820F4802008607C
:100EA0000846406820F4FE0048604FF41F00886048
:100EB000FFF754FF4FF000600449086010BD0000C8
:100EC000001002400000FFF8FFFFF6FE08ED00E012
:100ED00008B50120009001226946002000F054FA74
:100EE0000320009001226946002000F04DFA08BD61
:100EF00038B504460020009002226946204600F0E2
:100F000020FA9DF800009DF8011040EA01252846CE
:100F100038BD38B5044601200090012269461320EF
:100F200000F00FFA9DF8000000F0010088B11420D5
:100F3000FFF7DEFF20801620FFF7DAFF6080182021
:100F4000FFF7D6FFA0801A20FFF7D2FFE080012034
:100F500038BD0020FCE7000010B54FF48071134845
:100F6000FFF7B4FA1148001D006820F0F0000F49A7
:100F7000091D0860081F006840F03000091F086064
:100F800049150A48FFF7A2FA1420FFF7A5F94FF414
:100F900080710648FFF79CFA1420FFF79DF94FF483
:100FA00080710248FFF792FA10BD0000000C01406A
:100FB00008B54FF44070ADF8000010208DF8030024
:100FC00003208DF8020069460448FFF7ABF94FF49F
:100FD00040710248FFF77CFA08BD0000000C014098
:100FE00010B54FF480711348FFF770FA1148001DD7
:100FF000006820F0F0000F49091D0860081F006814
:1010000040F03000091F086049150A48FFF760FAF0
:101010001420FFF761F94FF480710648FFF758FA82
:101020001420FFF759F94FF480710248FFF74EFA88
:1010300010BD0000000C01402DE9F04107460D46AF
:1010400016469846002400F09FF8012101EB470165
:10105000C8B200F055F800F0F3F800BF0DE0701EC4
:10106000A04204D1002000F011F8285503E001202F
:1010700000F00CF82855601CC4B2B442EFDBB8F1A4
:10108000010F01D100F0AEF8BDE8F08170B5054662
:1010900000241A48006820F0F0001849086008464B
:1010A000006840F08000086000261DE04FF4807169
:1010B0001248001FFFF70AFA1420FFF70DF94FF44A
:1010C00080710E48001FFFF703FA6006040E0B48FC
:1010D000001D006800F4007008B1601CC4B20A2052
:1010E000FFF7FAF8701CC6B2082EDFDB15B9FFF760
:1010F00077FF01E0FFF730FF204670BD040C014090
:1011000070B504461F48006820F0F0001D490860D3
:10111000081F006840F03000091F08608915194851
:10112000001FFFF7D3F9002528E00120B0EBD41F02
:1011300005D141021348001FFFF7CAF905E04FF43B
:1011400000711048001FFFF7C1F96006040E14205B
:10115000FFF7C2F84FF480710A48001FFFF7B8F993
:101160001420FFF7B9F84FF480710648001FFFF70D
:10117000ADF91420FFF7B0F8681CC5B2082DD4DB18
:1011800070BD0000040C014010B51548006820F047
:10119000F00013490860081F006840F03000091F84
:1011A000086049150E48001FFFF792F94FF480714F
:1011B0000B48001FFFF78CF92820FFF78DF84FF43C
:1011C00000710748001FFFF781F92820FFF784F816
:1011D0004FF480710248001FFFF778F910BD00003E
:1011E000040C014010B51548006820F0F0001349C8
:1011F0000860081F006840F03000091F086089156A
:101200000E48001FFFF762F94FF400710B48001FF2
:10121000FFF75CF92820FFF75FF84FF4807107486B
:10122000001FFFF755F94FF400710448001FFFF746
:101230004FF92820FFF750F810BD0000040C0140C2
:1012400010B500241948006820F0F0001749086024
:101250000846006840F08000086049151348001FE8
:10126000FFF736F90A20FFF737F84FF480710F487F
:10127000001FFFF72DF90A20FFF72EF806E0641C87
:10128000FA2C03D9FFF7AEFF012010BD0748001D5F
:10129000006800F400700028F1D14FF48071034819
:1012A000001FFFF713F90020EFE70000040C0140D6
:1012B0002DE9F04105460E46174698460024FFF7F3
:1012C00063FF002141EA4501C8B2FFF719FFFFF7AC
:1012D000B7FF00BF06E0305DFFF712FFFFF7B0FF7A
:1012E000601CC4B2BC42F6DBB8F1010F01D1FFF7BC
:1012F00079FFBDE8F08108B500200090FFF758FEA7
:1013000001226946122000F01CF89DF800004D28CB
:1013100001D1012000E000209DF80010442901D1F6
:10132000012100E00021084348B1EB2000F025F83E
:10133000002000F01BF8FFF7CBFD012008BD0020C6
:10134000FCE737B50C4615469DF8000040F08000DC
:1013500000900023012269462920FFF7A9FF0123FD
:101360002A4621462920FFF767FE3EBD01B501222E
:1013700069460F2000F008F808BD01B50122694652
:10138000104600F001F808BDFEB506460F461546AA
:101390000020009001900290002446F080008DF81B
:1013A0000000012405E0601E385C0DF80400601C9C
:1013B000C4B2AC42F7DD681CC2B2012369462920E1
:1013C000FFF776FFFEBD000010B540F2255106483C
:1013D00000F018F838B1044800F0D0F8C4B2214643
:1013E000014800F0D0F810BD0038014021B18289D9
:1013F00042F40052828104E082894DF6FF731A4064
:101400008281704770B50246002400230025002029
:1014100040F66A16B14200D100BFC1F3421501F097
:101420001F03012606FA03F3012D02D196893340EA
:1014300006E0022D02D1168A334001E0968A33403D
:101440000C12012606FA04F41688344013B10CB1CC
:10145000012000E0002070BDF0B503460024002606
:101460000025002040F66A17B94200D100BF184697
:10147000C1F3421401F01F06012707FA06F5012CFB
:1014800001D10C3004E0022C01D1103000E0143006
:101490001AB107682F43076002E00768AF4307608F
:1014A000F0BD00002DE9F04786B005460E46002449
:1014B000A24600BFA1460027B08900B100BF2F4659
:1014C0002C8A4CF6FF700440F08804432C82AC89CF
:1014D0004EF6F3100440B0883189084371890843FF
:1014E0000443AC81AC8A4FF6FF400440B08904430A
:1014F000AC8201A8FFF718FB1F48874202D1DDF834
:1015000010A001E0DDF80CA0A88900F4004040B173
:101510000AEBCA0000EB0A1031684900B0FBF1F891
:1015200007E00AEBCA0000EB0A1031688900B0FB43
:10153000F1F86420B8FBF0F004012009642101FBFC
:101540001089A88900F4004040B1322000EBC900A6
:10155000B0FBF1F000F00700044308E0322000EB9C
:1015600009106421B0FBF1F000F00F0004432C815E
:1015700006B0BDE8F08700000038014001468888C9
:10158000C0F308007047C1F308028280704700BFB3
:10159000FEE710B5044621460020FFF7D1F810BD44
:1015A00010B5044621464020FFF7CAF810BD0000E0
:1015B00000B587B001210820FFF7A6FA01218803B2
:1015C000FFF7A2FA4020ADF8180003208DF81A00AA
:1015D00018208DF81B0006A92448FEF7A3FE8020E2
:1015E000ADF8140003208DF8160004208DF81700C4
:1015F00005A91E48FEF796FE4FF4E1300190002049
:10160000ADF80800ADF80A00ADF81000ADF80C0018
:101610000C20ADF80E004FF4A060FFF713F9252061
:101620008DF8000002208DF801008DF802000120E5
:101630008DF803006846FFF7CDF801A90C48FFF7C5
:1016400031FF012240F225510948FFF705FF012132
:101650000748FFF7CBFE01210846FFF755FA0121A5
:101660000420FEF7EBFE07B000BD0000000C0140B7
:101670000038014008B501210820FFF745FA102085
:10168000ADF8000003208DF8020048208DF803001B
:1016900069460248FEF746FE08BD0000000C014006
:1016A00008B501211020FFF72FFA4FF40050ADF8D4
:1016B000000003208DF8020010208DF80300694619
:1016C0000148FEF72FFE08BD00100140FEF7BCFDEB
:1016D000FFF7E6FFFFF7CEFFFFF76AFFFFF7DEF841
:1016E000FFF709FEFFF7B8F854E02B48FFF711FCAD
:1016F0002A492948FFF782FA012329A21946002026
:10170000FFF73CF924484288032301213220FFF7E8
:10171000ABF9012324A202210020FFF72FF91E4874
:101720008288032302213220FFF79EF9012320A2A1
:1017300003210020FFF722F91748C2880323194626
:101740003220FFF791F901231BA204210020FFF7AB
:1017500015F912480288032304213220FFF784F987
:10176000012317A205210020FFF708F90B48827812
:10177000032305213220FFF777F9012312A2062166
:101780000020FFF7FBF80548C2780323062132202A
:10179000FFF76AF9A9E700002C00002034000020C0
:1017A0005247422E520000005247422E470000008E
:1017B0005247422E4200000048534C2E4800000081
:1017C00048534C2E5300000048534C2E4C00000050
:1017D0000000000000000000002F000000000700D3
:1017E000070000147F147F1400242A7F2A1200624D
:1017F00064081323003649552250000005030000F9
:1018000000001C224100000041221C000014083E80
:1018100008140008083E0808000000A06000000846
:10182000080808080000606000000020100804029A
:10183000003E5149453E0000427F40000042615158
:101840004946002141454B31001814127F100027F2
:1018500045454539003C4A494930000171090503B5
:1018600000364949493600064949291E00003636E6
:101870000000000056360000000814224100001449
:101880001414141400004122140800020151090626
:1018900000324959513E007C1211127C007F4949A7
:1018A0004936003E41414122007F4141221C007FD8
:1018B00049494941007F09090901003E4149497AE6
:1018C000007F0808087F0000417F41000020404160
:1018D0003F01007F08142241007F40404040007FCC
:1018E000020C027F007F0408107F003E4141413E10
:1018F000007F09090906003E4151215E007F091958
:1019000029460046494949310001017F0101003F54
:101910004040403F001F2040201F003F4038403FD4
:101920000063140814630007087008070061514938
:10193000454300007F41410000552A552A550000CB
:1019400041417F0000040201020400404040404049
:10195000000001020400002054545478007F4844E1
:10196000443800384444442000384444487F003818
:101970005454541800087E0901020018A4A4A47C41
:10198000007F080404780000447D4000004080840B
:101990007D00007F102844000000417F4000007C53
:1019A00004180478007C080404780038444444385F
:1019B00000FC242424180018242418FC007C0804AB
:1019C000040800485454542000043F444020003C84
:1019D0004040207C001C2040201C003C4030403C0B
:1019E000004428102844001CA0A0A07C004464549B
:1019F0004C441414141414140000000000000000DF
:101A00000000000000000000000000F800000000DE
:101A1000000000333000000000100C06100C06001F
:101A2000000000000000000040C07840C078400086
:101A3000043F04043F040400007088FC08300000E8
:101A4000001820FF211E0000F008F000E018000040
:101A500000211C031E211E0000F0088870000000F9
:101A60001E2123241927211010160E00000000004B
:101A70000000000000000000000000E01804020068
:101A8000000000071820400000020418E0000000D9
:101A90000040201807000000404080F080404000D7
:101AA0000202010F01020200000000F0000000002D
:101AB0000101011F01010100000000000000000001
:101AC00080B0700000000000000000000000000076
:101AD00000010101010101010000000000000000FF
:101AE000003030000000000000000000806018049A
:101AF000006018060100000000E010080810E00077
:101B0000000F102020100F00001010F8000000003F
:101B10000020203F20200000007008080888700086
:101B20000030282422213000003008888848300006
:101B30000018202020110E000000C02010F8000026
:101B400000070424243F240000F8088888080800BF
:101B50000019212020110E0000E0108888180000D4
:101B6000000F112020110E0000380808C8380800A6
:101B70000000003F00000000007088080888700026
:101B8000001C222121221C0000E010080810E000A7
:101B90000000312222110F00000000C0C000000030
:101BA0000000003030000000000000800000000055
:101BB000000080600000000000008040201008004D
:101BC0000001020408102000404040404040400016
:101BD00004040404040404000008102040800000F1
:101BE0000020100804020100007048080808F000F6
:101BF0000000003036010000C030C828E810E000C6
:101C00000718272423140B000000C038E000000050
:101C1000203C23020227382008F8888888700000BA
:101C2000203F202020110E00C0300808080838008E
:101C3000071820202010080008F808080810E00005
:101C4000203F202020100F0008F88888E8081000A6
:101C5000203F20202320180008F88888E80810007A
:101C6000203F200003000000C030080808380000B2
:101C700007182020221E020008F808000008F808B3
:101C8000203F210101213F20000808F8080800003A
:101C90000020203F2020000000000808F80808006D
:101CA000C08080807F00000008F888C028180800E5
:101CB000203F20012638200008F80800000000001E
:101CC000203F20202020300008F8F800F8F8080015
:101CD000203F003F003F200008F830C00008F8080F
:101CE000203F200007183F00E01008080810E0001F
:101CF0000F10202020100F0008F808080808F00036
:101D0000203F210101010000E01008080810E00058
:101D10000F18242438504F0008F8888888887000ED
:101D2000203F2000030C302000708808080838008D
:101D30000038202121221C00180808F80808180083
:101D40000000203F2000000008F808000008F80804
:101D5000001F202020201F000878880000C83808B5
:101D6000000007380E010000F80800F80008F8002D
:101D7000033C0700073C03000818688080681808C7
:101D800020302C03032C30200838C800C838080045
:101D90000000203F2000000010080808C838080094
:101DA0002038262120201800000000FE0202020038
:101DB0000000007F40404000000C30C000000000E8
:101DC000000000010638C00000020202FE00000010
:101DD000004040407F0000000000040202020400B6
:101DE00000000000000000000000000000000000F3
:101DF00080808080808080800002020400000000DB
:101E000000000000000000000000808080800000D2
:101E10000019242222223F2008F8008080000000C0
:101E2000003F112020110E00000000808080000083
:101E3000000E112020201100000000808088F80092
:101E4000000E112020103F200000808080800000C4
:101E5000001F222222221300008080F08888881828
:101E60000020203F20200000000080808080800033
:101E7000006B94949493600008F8008080800000C8
:101E8000203F210000203F200080989800000000A3
:101E90000020203F202000000000008098980000D3
:101EA00000C08080807F000008F8000080808000F3
:101EB000203F24022D302000000808F80000000018
:101EC0000020203F202000008080808080808000D3
:101ED000203F20003F20003F808000808080000065
:101EE000203F210000203F200000808080800000F3
:101EF000001F202020201F00808000808000000024
:101F000080FFA12020110E00000000808080800052
:101F1000000E112020A0FF80808080008080800043
:101F200020203F2120000100000080808080800070
:101F30000033242424241900008080E080800000E5
:101F40000000001F20200000808000000080800032
:101F5000001F202020103F20808080000080808093
:101F600000010E3008060100808000800080808023
:101F70000F300C030C300F00008080008080800048
:101F80000020312E0E312000808080000080808073
:101F900080818E7018060100008080808080800023
:101FA0000021302C2221300000000000807C020241
:101FB00000000000003F404000000000FF00000063
:101FC00000000000FF0000000002027C8000000012
:101FD0000040403F0000000000060101020204042E
:101FE00000000000000000000820000800000020A1
:101FF00038000000280100084020000838000020B8
:102000006006000044010008000000000102030413
:1020100001020304060708090204060800A24A0494
:102020000000000000000000010203040607080988
:1020300000000000000000000000000000000000A0
:040000050800018965
:00000001FF
